:020000040800F2
:10000000A8110020510500083D0200083F02000829
:100010004B020008570200086302000800000000BD
:100020000000000000000000000000006F02000857
:100030007102000800000000670500085141000837
:100040006B0500086B0500086B05000875020008C9
:100050006B0500086B05000873020008B328000850
:100060006B0500086B0500086B0500086B050008B0
:100070006B0500086B0500086B0500086B050008A0
:100080006B0500086B0500086B0500086B05000890
:100090006B0500086B0500086B0500086B05000880
:1000A0006B0500086B0500086B0500086B05000870
:1000B0006B0500086B0500086B0500086B05000860
:1000C0006B0500086B0500086B0500086B05000850
:1000D0006B050008B3270008296D00086B050008B0
:1000E0006B0500086B0500086B05000800F002F8BE
:1000F00000F094F80AA090E8000C82448344AAF12E
:100100000107DA4501D100F089F8AFF2090EBAE82B
:100110000F0013F0010F18BFFB1A43F0010318473B
:1001200018F2000038F20000103A24BF78C878C1F5
:10013000FAD8520724BF30C830C144BF04680C60ED
:10014000704700000023002400250026103A28BF35
:1001500078C1FBD8520728BF30C148BF0B60704739
:100160006E2909F06B86702909F09D8166290EF0D1
:10017000238165290EF0208167290EF01D816129F8
:100180000EF01C8103681B0A28BF41F08001692919
:1001900009F00E81642909F00B81752909F00881A5
:1001A0006F290AF06881782909F06981E9290AF044
:1001B0000381E4290AF00081F5290AF0FD80EF2986
:1001C0000AF06581F82909F068810368DB0928BF16
:1001D00041F0800163290AF0848073290AF0898044
:1001E000E3290AF0AD86F3290AF0B28600207047B1
:1001F0001FB59DE8030009F075FD0AF069FC0400D5
:10020000002000210CF0C2FE401C60600020002194
:100210000CF0D2FEE0601FBD10B510BD0BF0F0F881
:100220001146FFF7E5FF04F0D3F80BF039FB03B4F8
:10023000FFF7F2FF03BC0BF069FB000070470EA153
:100240001C4802F092FA00BFFEE71BA1194802F019
:100250008CFA00BFFEE727A1164802F086FA00BF1D
:10026000FEE733A1134802F080FA00BFFEE77047B3
:1002700070477047704700000D0A2A2A2A2A2A2A46
:100280002A2A2A2A2A2A2A2A2A2A2A2A2A48617231
:10029000644661756C745F48616E646C65722A2A8D
:1002A0002A2A2A2A2A2A2A2A2A2A2A2A2A2A2A2AAE
:1002B0002A0D0A00003801400D0A2A2A2A2A2A2A71
:1002C0002A2A2A2A2A2A2A2A2A2A2A2A2A4D656DED
:1002D0004D616E6167655F48616E646C65722A2A64
:1002E0002A2A2A2A2A2A2A2A2A2A2A2A2A2A2A2A6E
:1002F0002A0D0A000D0A2A2A2A2A2A2A2A2A2A2A02
:100300002A2A2A2A2A2A2A2A2A4275734661756CC1
:10031000745F48616E646C65722A2A2A2A2A2A2A26
:100320002A2A2A2A2A2A2A2A2A2A2A2A0D0A0000BE
:100330000D0A2A2A2A2A2A2A2A2A2A2A2A2A2A2A5A
:100340002A2A2A2A2A55736167654661756C745F8B
:1003500048616E646C65722A2A2A2A2A2A2A2A2A65
:100360002A2A2A2A2A2A2A2A2A2A0D0A00000000D2
:100370000CB50020019000906C48006840F480307B
:100380006A49086000BF6948006800F400300090C6
:100390000198401C0190009818B90198B0F5A06F21
:1003A000F1D16248006800F4003010B101200090E3
:1003B00001E0002000900098012843D15C480068CB
:1003C00040F010005A4908600846006820F0030019
:1003D00008600846006840F0020008605348406822
:1003E000524948600846406848600846406840F402
:1003F000806048600846406820F47C1048600846E9
:10040000406840F4E81048600846006840F080709A
:10041000086000BF4548006800F000700028F9D06F
:100420004248406820F00300404948600846406860
:1004300040F00200486000BF3C48406800F00C00FB
:100440000828F9D10CBD10B5FFF792FF10BD10B50B
:100450003648006840F001003449086008464068AA
:10046000344908403149486008460068324908402C
:100470002E4908600846006820F48020086008467D
:10048000406820F4FE0048604FF41F008860FFF7CA
:10049000DAFF4FF000602949086010BD10B5002157
:1004A00000200022214B5B6803F00C0121B10429DC
:1004B00006D0082928D107E0214B224C236027E0F1
:1004C0001F4B204C236023E0184B5B6803F4701033
:1004D000164B5B6803F48032022303EB904022B991
:1004E000194B4343174C23600DE0104B5B6803F43A
:1004F000003323B1144B4343124C236003E0104BF1
:100500004343104C236003E00D4B0E4C236000BFAF
:1005100000BF064B5B68C3F303130C4CE15C094B53
:100520001B68CB40074C236010BD00000010024048
:10053000002002400000FFF8FFFFF6FE08ED00E09B
:1005400000127A000000002000093D000400002095
:100550000948804709480047FEE7FEE7FEE7FEE757
:10056000FEE7FEE7FEE7FEE7FEE7FEE70448054993
:10057000054A064B704700004F040008ED000008D4
:10058000A8070020A8110020A8090020A809002021
:10059000002044490860091D0860091D0860091D04
:1005A000086041483F4914310860704700213D49C7
:1005B0008279002A3AD00A46126803689A430B46A9
:1005C0001A600A1D126803689A430B1D1A600279AB
:1005D00011440A6803681A430A60324A08321268F2
:1005E00003689A432F4B08331A601A1D1268036878
:1005F0009A432C4B0C331A604279102A0ED11A1FE1
:10060000126803681A43274B08331A601A1D1268D0
:1006100003681A43234B0C331A600DE021494279D9
:1006200011440A6803681A430A6005E0027911441C
:100630000A6803689A430A607047002101600171EB
:100640000C214171002181717047164910310968F0
:100650000143144A10321160704701460020114ACC
:10066000143212680A400AB1012000E000207047ED
:100670000C49143108607047014600200022094BE4
:100680001B6803EA0102074B14331B680B4013B1CC
:100690000AB1012000E000207047024914310860CF
:1006A0007047000000040140FFFF0F003149014383
:1006B000314A1160704770B5002100230F22C478C1
:1006C00004B32D4C246804F4E064C4F5E064210A0A
:1006D000C1F10403CA40447804FA03F18478144059
:1006E00021430901254C0678A155047804F01F0523
:1006F0000124AC4005786D11AD0005F1E025C5F889
:10070000004109E0047804F01F050124AC401C4DB1
:100710000678761145F8264070BD1A4A0A40024311
:10072000154B1B1F1A60704739B1134A121D12680E
:100730000243114B1B1D1A6006E00F4A121D12687E
:1007400082430D4B1B1D1A607047042808D14FF0DF
:10075000E021096941F004014FF0E022116107E056
:100760004FF0E021096921F004014FF0E02211610E
:10077000704700000000FA050CED00E000E400E026
:1007800080E100E080FFFF1F10B50446CC488442A2
:1007900008D10121042001F067FE0021042001F0AE
:1007A00063FE46E0C748844208D10121082001F0D9
:1007B0005BFE0021082001F057FE3AE0C248844267
:1007C00008D10121102001F04FFE0021102001F07E
:1007D0004BFE2EE0BD48844208D10121202001F0CB
:1007E00043FE0021202001F03FFE22E0B848844271
:1007F00008D10121402001F037FE0021402001F006
:1008000033FE16E0B348844208D10121802001F074
:100810002BFE0021802001F027FE0AE0AE48844232
:1008200007D10121801501F01FFE0021A01501F064
:100830001BFE10BD10B50121084601F015FE002178
:10084000012001F011FE10BD2DE9F0410246002506
:100850000026002000230024002791F803C00CF09C
:100860000F0591F803C00CF0100CBCF1000F03D081
:1008700091F802C04CEA050591F800C0BCF1000FE8
:1008800031D0146800202BE04FF0010C0CFA00F37B
:10089000B1F800C00CEA03069E4220D183004FF05D
:1008A0000F0C0CFA03F7BC4305FA03FC4CEA0404F2
:1008B00091F803C0BCF1280F06D14FF0010C0CFADF
:1008C00000FCC2F814C00AE091F803C0BCF1480F64
:1008D00005D14FF0010C0CFA00FCC2F810C0401C0E
:1008E0000828D1D31460B1F800C0BCF1FF0F34DD8B
:1008F000546800202EE000F1080C4FF0010808FABF
:100900000CF3B1F800C00CEA03069E4221D183002B
:100910004FF00F0C0CFA03F7BC4305FA03FC4CEA4A
:10092000040491F803C0BCF1280F05D100F1080CB4
:1009300008FA0CF8C2F8148091F803C0BCF1480F13
:1009400007D100F1080C4FF0010808FA0CF8C2F8C2
:100950001080401C0828CED35460BDE8F0814FF6CB
:10096000FF710180022181700421C170704702462D
:10097000002093680B400BB1012000E0002070477D
:100980000146886880B2704702460020D3680B4059
:100990000BB1012000E0002070470146C86880B21A
:1009A000704701617047416170470AB1016100E021
:1009B00041617047C16070474FF480320A438261E1
:1009C0008161826182698269704702460020434BDF
:1009D00018684FF68073184040EA021008433F4BF6
:1009E000186070473E49C8617047F0B50A46002359
:1009F00000240021002500F00046B6F1004F02D18E
:100A0000364EF16901E0354E7168C0F3034583B29B
:100A100000F44016B6F5401F08D121F070612F4E4A
:100A2000766826F070662D4F7E6012E000F4801626
:100A3000B6F5801F06D1032606FA05F4A14341F05E
:100A4000706106E0460D360103FA06F6B14341F047
:100A5000706122B1460D360103FA06F6314300F00B
:100A60000046B6F1004F02D11C4EF16101E01B4E71
:100A70007160F0BD30B500228B071C0F0F2303FA05
:100A800004F2164B08338C1053F824309343134C64
:100A900008348D1044F8253023468C1053F8243048
:100AA0008C07240F00FA04F423430C4C08348D10F7
:100AB00044F8253030BD0A49DC3108607047000039
:100AC00000080140000C01400010014000140140EA
:100AD00000180140001C01400020014000000140BE
:100AE0000000204210B50446FB48844209D1012190
:100AF000880301F0B9FC00214FF4804001F0B4FC00
:100B000032E0F648844209D10121480401F0B9FCE1
:100B100000214FF4003001F0B4FC25E0F04884429D
:100B200009D10121880401F0ACFC00214FF48020A0
:100B300001F0A7FC18E0EB48844209D10121C80468
:100B400001F09FFC00214FF4002001F09AFC0BE023
:100B5000E548844208D10121080501F092FC0021FA
:100B60004FF4801001F08DFC10BD2DE9F04786B0E8
:100B700005460E460024A24600BFA1460027B089C4
:100B800000B100BF2F462C8A4CF6FF700440F0885D
:100B900004432C82AC894EF6F3100440B0883189AE
:100BA0000843718908430443AC81AC8A4FF6FF4087
:100BB0000440B0890443AC8201A801F0CEFBC648D2
:100BC000874202D1DDF810A001E0DDF80CA0A88971
:100BD00000F4004040B10AEBCA0000EB0A10316893
:100BE0004900B0FBF1F807E00AEBCA0000EB0A107D
:100BF00031688900B0FBF1F86420B8FBF0F0040123
:100C00002009642101FB1089A88900F4004040B14B
:100C1000322000EBC900B0FBF1F000F00700044304
:100C200008E0322000EB09106421B0FBF1F000F085
:100C30000F0004432C8106B0BDE8F0874FF4165135
:100C4000016000218180C18001810C21418100214E
:100C50008181704710B502460020108A4FF2FF03D1
:100C600018400B884C8823438C882343CC8823432B
:100C70001843108210BD0021018041808180C18015
:100C8000704721B1828942F40052828104E0828956
:100C90004DF6FF731A4082817047F0B50346002479
:100CA00000260025002040F66A17B94200D100BF97
:100CB0001846C1F3421401F01F06012707FA06F592
:100CC000012C01D10C3004E0022C01D1103000E0E5
:100CD00014301AB107682F43076002E00768AF437A
:100CE0000760F0BD1AB1838A0B43838202E0838AD6
:100CF0008B4383827047028A4FF6F0731A40028258
:100D0000028A0A430282704782894FF2FF731A40B7
:100D1000828182890A438281704721B1828942F0AF
:100D20000202828104E082894FF6FD731A408281BB
:100D30007047028A4FF6DF731A400282028A0A4322
:100D40000282704721B1028A42F48042028204E0AA
:100D5000028A4BF6FF731A4002827047C1F3080201
:100D60008280704701468888C0F3080070478189F7
:100D700041F0010181817047028BD2B20283028B64
:100D800042EA012202837047028B02F47F4202830F
:100D9000028B0A430283704721B1828A42F020020B
:100DA000828204E0828A4FF6DF731A4082827047A3
:100DB00021B1828A42F01002828204E0828A4FF6D8
:100DC000EF731A408282704721B1828A42F0080292
:100DD000828204E0828A4FF6F7731A40828270475B
:100DE00021B1828942F40042828103E08289C2F308
:100DF0000E028281704721B1828A42F400628282AF
:100E000004E0828A4FF2FF731A4082827047828A1E
:100E10004FF6FB731A408282828A0A4382827047AD
:100E200021B1828A42F00202828204E0828A4FF675
:100E3000FD731A408282704702460020B1F5007FA0
:100E400000D100BF13880B400BB1012000E000204F
:100E5000704701F40072B2F5007F00D100BFCA43B1
:100E60000280704770B50246002400230025002050
:100E700040F66A16B14200D100BFC1F3421501F03D
:100E80001F03012606FA03F3012D02D19689334090
:100E900006E0022D02D1168A334001E0968A3340E3
:100EA0000C12012606FA04F41688344013B10CB172
:100EB000012000E0002070BD10B50022002340F6A4
:100EC0006A14A14200D100BF0A1201249440A3B2C7
:100ED000DC43048010BD00000038014000440040A5
:100EE00000480040004C00400050004010B504464F
:100EF000FA48844208D10121401501F0B5FA0021D9
:100F0000601501F0B1FA17E0F548844208D10121DB
:100F1000001501F0A9FA0021201501F0A5FA0BE057
:100F2000F048844208D10121C80301F09DFA002154
:100F30004FF4004001F098FA10BD30B50246002091
:100F400000235068E84C20400D790C6844EA0524E1
:100F5000204350609068E54C2040D1E902542C4376
:100F60004D7944EA450420439060D06A20F4700033
:100F70000C7C641EE4B2234340EA0350D06230BDCF
:100F800000210160017141718160C1600121017422
:100F9000704721B1826842F00102826003E08268FA
:100FA00022F001028260704721B1826842F48072AF
:100FB000826003E0826822F480728260704710B51C
:100FC0000023CBB21AB144681C43446002E0446879
:100FD0009C43446010BD816841F008018160704706
:100FE000014600208A6802F008020AB1012000E0F0
:100FF00000207047816841F004018160704701461C
:1010000000208A6802F004020AB1012000E00020FA
:10101000704721B1826842F4A002826003E08268D6
:1010200022F4A00282607047014600208A6802F420
:1010300080020AB1012000E00020704710B50A4686
:1010400000210023416821F46041531E41EA4331ED
:10105000416010BD21B1426842F40062426003E089
:10106000426822F4006242607047F0B504460D46C3
:1010700000200021092D11DDE068A5F10A0606EB2C
:101080004607072606FA07F18843A5F10A0606EB8C
:10109000460603FA06F10843E0600CE0206905EB20
:1010A0004507072606FA07F1884305EB450603FACC
:1010B00006F108432061072A0FDA606B561E06EB23
:1010C00086071F2606FA07F18843561E06EB86069A
:1010D00005FA06F10843606322E00D2A0FDA206B5F
:1010E000D61F06EB86071F2606FA07F18843D61F90
:1010F00006EB860605FA06F10843206310E0E06A75
:10110000A2F10D0606EB86071F2606FA07F18843B3
:10111000A2F10D0606EB860605FA06F10843E06229
:10112000F0BD21B1826842F48012826003E08268DF
:1011300022F48012826070470146C86C80B270470A
:1011400066484C300068704721B1426842F48062C2
:10115000426003E0426822F480624260704721B13D
:10116000426842F48052426003E0426822F48052B6
:10117000426070470A460021816821F4E041114332
:101180008160704721B1826842F40042826003E0CE
:10119000826822F400428260704721B1826842F482
:1011A0000212826003E0826822F4021282607047B9
:1011B000014600208A6802F400120AB1012000E012
:1011C00000207047F0B50446154600200022002696
:1011D000092911DDE068A1F10A0707EB470C072791
:1011E00007FA0CF29043A1F10A0707EB470703FA4D
:1011F00007F21043E0600CE0206901EB410C072787
:1012000007FA0CF2904301EB410703FA07F210438F
:101210002061A06BC0F30156EF1C06F1010CA7EB97
:101220000C0707EB870C1F2707FA0CF29043EF1C03
:1012300006F1010CA7EB0C0707EB870701FA07F291
:101240001043A063F0BD10B50A4600210023816B56
:1012500021F44011531E41EA0351816310BD08B5CA
:10126000002300930090009B0B440093009B1A60A6
:1012700008BD08B5024600200090009201F1280048
:10128000009B184400900098006880B208BD0A4690
:1012900000214168164B194011434160704741627B
:1012A000826270470A460021416821F01F01114304
:1012B0004160704740B109490831096841F40001B3
:1012C000064A0832116007E004490831096821F430
:1012D0000001024A083211607047000000240140FA
:1012E00000280140003C0140FFFEF0FFFDF7F1FF48
:1012F000FFFD3FFF0246002013680B400BB10120A9
:1013000000E000207047CA430260704770B5024693
:101310000020002300240B125568CEB205EA060413
:1013200015681D4015B10CB1012000E0002070BD12
:1013300000220A12D34303607047000010B5044630
:10134000FE48844208D10121C01401F08DF800212B
:10135000E01401F089F8C4E0B4F1804F08D1012114
:10136000084601F08EF80021012001F08AF8B8E06B
:10137000F348844208D10121022001F082F80021C3
:10138000022001F07EF8ACE0EE48844208D1012151
:10139000042001F076F80021042001F072F8A0E0AA
:1013A000E948844208D10121082001F06AF80021AF
:1013B000082001F066F894E0E448844208D1012155
:1013C000102001F05EF80021102001F05AF888E0AA
:1013D000DF48844208D10121202001F052F8002189
:1013E000202001F04EF87CE0DA48844208D1012147
:1013F000401401F039F80021601401F035F870E074
:10140000D548844209D10121C80401F02DF80021FA
:101410004FF4002001F028F863E0D048844209D15D
:101420000121080501F020F800214FF4801001F09F
:101430001BF856E0CA48844209D10121480501F051
:1014400013F800214FF4001001F00EF849E0C548F0
:10145000844208D10121402001F013F800214020EE
:1014600001F00FF83DE0C048844208D101218020FE
:1014700001F007F80021802001F003F831E0BB48BB
:10148000844208D10121801500F0FBFF0021A01546
:1014900000F0F7FF25E0B648844209D10121080495
:1014A00000F0E2FF00214FF4803000F0DDFF18E093
:1014B000B048844209D10121480400F0D5FF002141
:1014C0004FF4003000F0D0FF0BE0AB48844208D16D
:1014D0000121880400F0C8FF00214FF4802000F0B3
:1014E000C3FF10BD00220288944B98420ED0994B46
:1014F00098420BD0B0F1804F08D0914B984205D064
:10150000904B984202D0904B984204D14FF68F7383
:101510001A404B881A438D4B984207D08C4B984207
:1015200004D04FF6FF431A40CB881A4302808B88C1
:1015300083850B880385814B98420BD0854B98425D
:1015400008D08B4B984205D08A4B984202D08A4BE8
:10155000984201D10B7A038601238382704770B5CC
:10156000002400220023058C4FF6FE7635400584CA
:10157000028C8388048B4FF68F752C40B51E2C404F
:101580000D882C43751E2A400D892A434D882A4315
:101590006A4DA8420BD06F4DA84208D0744DA842A6
:1015A00005D0744DA84202D0734DA84213D14FF616
:1015B000F7752A404D892A434FF6FB752A408D88DE
:1015C0002A434FF6FF652B404FF6FF552B408D8980
:1015D0002B43CD892B4383800483CD888586028469
:1015E00070BD70B5002400220023058C4FF6EF7605
:1015F00035400584028C8388048B48F6FF752C40A7
:101600004FF6FF452C400D884FF6FF7606EA05257C
:101610002C434FF6DF752A400D8906EA05152A434B
:101620004D8806EA05152A43444DA84202D0494D8B
:10163000A8421DD14FF67F752A404D894FF6FF769F
:1016400006EA05152A434FF6BF752A408D8806EA3B
:1016500005152A434FF6FF352B404FF2FF752B40FF
:101660008D8906EA85052B43CD8906EA85052B433E
:1016700083800483CD880587028470BD70B5002403
:1016800000220023058C4FF6FF6635400584028C4E
:101690008388848B4FF68F752C404FF6FC752C4059
:1016A0000D882C434FF6FF552A400D894FF6FF76E3
:1016B00006EA05252A434D8806EA05252A431F4DDB
:1016C000A84202D0234DA8421DD14FF2FF752A40F7
:1016D0004D894FF6FF7606EA05252A434FF6FF357A
:1016E0002A408D8806EA05252A434EF6FF752B40D1
:1016F0004DF6FF752B408D8906EA05152B43CD89E4
:1017000006EA05152B4383808483CD888587028470
:1017100070BD70B5002200230024058C4EF6FF76C4
:1017200035400584038C8488828B48F6FF752A40F7
:101730004FF6FF452A400D8820E00000002C0140B4
:101740000004004000080040000C00400010004071
:101750000014004000340140004C014000500140A2
:101760000054014000180040001C004000200040D0
:101770000040014000440140004801404FF6FF7620
:1017800006EA05252A434DF6FF752B400D8906EA2A
:1017900005352B434D8806EA05352B43FA4DA84203
:1017A00002D0FA4DA84208D14BF6FF752C408D8926
:1017B0004FF6FF7606EA85152C4384808283CD8818
:1017C000A0F84050038470BD828B4FF2FF331A4063
:1017D0008283828B4FF6FF7303EA01231A438283CD
:1017E0007047F0B50C461546002200210026078CF4
:1017F0004EF6FF7C07EA0C070784828B018C4FF6BC
:10180000FF7707EA043640F6FF473A404FF6FF7786
:1018100007EA05273A434FF6FF7707EA03373A43CB
:10182000D94FB8420ED0D94FB8420BD0B0F1804F4B
:1018300008D0D74FB84205D0D64FB84202D0D64FC5
:10184000B84206D14DF6FF77394046F48057394308
:1018500005E047F6FF57394044F480573943828307
:101860000184F0BD828B4FF6F3731A408283828B22
:101870000A4382837047F0B50C46154600220021CA
:101880000026078C4FF6FF6C07EA0C070784828B53
:10189000018C4FF6FF7707EA04264FF60C773A40A3
:1018A0004FF6FF7707EA03172F433A43B64FB84284
:1018B0000ED0B64FB8420BD0B0F1804F08D0B44F25
:1018C000B84205D0B34FB84202D0B34FB84206D1A8
:1018D0004FF6FF57394046F48077394305E04FF221
:1018E000FF57394044F48077394382830184F0BD47
:1018F000028B4FF2FF331A400283028B4FF6FF73C5
:1019000003EA01231A4302837047F0B50C461546DB
:10191000002200210026078C4FF6EF7C07EA0C0717
:101920000784028B018C4FF6FF7707EA041640F616
:10193000FF473A404FF6FF7707EA03373A434FF63F
:10194000FF7707EA05273A438F4FB8420ED08F4FF3
:10195000B8420BD0B0F1804F08D08D4FB84205D0BF
:101960008C4FB84202D08C4FB84206D14FF6DF7789
:10197000394046F01007394305E04FF65F773940AC
:1019800044F01007394302830184F0BD028B4FF607
:10199000F3731A400283028B0A4302837047F0B547
:1019A0000C46154600220021068C4FF6FE773E407D
:1019B0000684028B018C4FF60C7632407E1C06EAC0
:1019C00003162E433243704EB0420ED06F4EB042DB
:1019D0000BD0B0F1804F08D06D4EB04205D06D4EA7
:1019E000B04202D06C4EB04206D14FF6FD76314087
:1019F00044F00106314305E04FF6F576314044F0FE
:101A00000106314302830184F0BD70B505460C46E2
:101A10005D4885420ED05D4885420BD0B5F1804FC0
:101A200008D05B48854205D05A48854202D05A48C2
:101A3000854200D100E000BF208850B92389A288E8
:101A400061882846FFF7ABFFE1882846FFF79EFF35
:101A500025E0208804280AD12389A28861882846A5
:101A6000FFF753FFE1882846FFF742FF17E0208881
:101A700008280AD12389A28861882846FFF7FBFE3F
:101A8000E1882846FFF7EEFE09E02389A2886188F5
:101A90002846FFF7A6FEE1882846FFF795FE70BDB1
:101AA0002DE9F04105460C4600260127608808B95B
:101AB000022600E00026A088012801D1022700E0CC
:101AC00001272088A0B92389A28861882846FFF7CA
:101AD00066FFE1882846FFF759FF23893A463146D9
:101AE0002846FFF712FFE1882846FFF701FF13E0C1
:101AF0002389A28861882846FFF707FFE1882846E6
:101B0000FFF7F6FE23893A4631462846FFF747FF9E
:101B1000E1882846FFF73AFFBDE8F0810A884B8844
:101B20001A438B881A43CB881A430B891A434B8973
:101B30001A438B891A43A0F8442070474FF6FF716F
:101B4000818000210180C1804180017270470021A5
:101B5000018041808180C180018141818181C18179
:101B60007047002101804180012181800021C180D6
:101B7000018170470021018041808180C180018105
:101B80004181818170470000002C014000340140F8
:101B90000004004000080040000C004021B1028811
:101BA00042F00102028004E002884FF6FE731A4000
:101BB0000280704731B1B0F8442042F40042A0F8EE
:101BC000442005E0B0F84420C2F30E02A0F84420FF
:101BD00070471AB183890B43838102E083898B4369
:101BE000838170478182704741EA0203A0F8483040
:101BF00070471AB183890B43838102E083898B4349
:101C00008381704701894FF6F87211400181704756
:101C10000A46002101894FF68F7319401143018153
:101C2000704730B504460D4629462046FFF7F0FFC1
:101C3000208940F00700208130BD2DE9F0410446A5
:101C40000D4616461F46602D06D13B460122314601
:101C50002046FFF75AFE05E03B460122314620466A
:101C6000FFF79DFE29462046FFF7D2FF208940F06E
:101C700007002081BDE8F08130B50C4600210189C4
:101C8000C9B24FF6FF7505EA0325154325432943DD
:101C9000018130BD2DE9F04105460E4617469846B4
:101CA000002443463A4631462846FFF7E5FF2C8993
:101CB0004FF6F870044044F007044FF68F7004406C
:101CC00044F070042C81BDE8F081F0B504460D4667
:101CD00016461F463B46324629462046FFF7CCFFB4
:101CE000208940F480402081F0BD018582827047C8
:101CF0000A46002101884FF68F7319401143018075
:101D00007047F0B50C4615461E4600210022002300
:101D10000189028B038C4FF6F877394021434FF647
:101D2000FC473A4040F201173A434FF6DD773B401B
:101D30004FF6FF7707EA06172F433B4301810283E3
:101D40000384F0BD0A460021018B4FF68F731940C2
:101D50001143018370470A460021018B48F6FF7347
:101D600019404FF6FF7303EA0223194301837047BA
:101D70000A460021818B4FF68F73194011438183EE
:101D800070470A460021818B48F6FF7319404FF6D1
:101D9000FF7303EA022319438183704721B102884C
:101DA00042F08002028004E002884FF67F731A40FE
:101DB0000280704721B1828842F00402828004E0F0
:101DC00082884FF6FB731A408280704721B1828867
:101DD00042F00802828004E082884FF6F7731A40CE
:101DE0008280704721B1828842F00102828004E043
:101DF00082884FF6FE731A40828070470A4600219F
:101E0000018B4FF6F77319401143018370470A465F
:101E10000021018B4FF2FF7319404FF6FF7303EA65
:101E200002231943018370470A460021818B4FF634
:101E3000F77319401143818370470A460021818B53
:101E40004FF2FF7319404FF6FF7303EA0223194361
:101E5000818370470A460021018B4FF6FB731940BE
:101E60001143018370470A460021018B4FF6FF336F
:101E700019404FF6FF7303EA0223194301837047A9
:101E80000A460021818B4FF6FB7319401143818371
:101E900070470A460021818B4FF6FF3319404FF6F9
:101EA000FF7303EA02231943818370470A46002126
:101EB000018B4FF67F7319401143018370470A4627
:101EC0000021018BC1F30E014FF6FF7303EA0223D9
:101ED0001943018370470A460021818B4FF67F73B7
:101EE00019401143818370470A460021818BC1F359
:101EF0000E014FF6FF7303EA0223194381837047F3
:101F00000A460021018C4FF6FD73194011430184EC
:101F100070470A460021018C4FF6F77319401143B0
:101F2000018470470A460021018C4FF6DF73194087
:101F30004FF6FF7303EA02131943018470470A4600
:101F40000021018C4FF67F7319404FF6FF7303EAAF
:101F500002131943018470470A460021018C4FF691
:101F6000FF5319404FF6FF7303EA0223194301841C
:101F700070470A460021018C4FF2FF7319404FF65B
:101F8000FF7303EA02231943018470470A460021C4
:101F9000018C4DF6FF7319404FF6FF7303EA0233CD
:101FA00019430184704730B5002301248C40A3B24B
:101FB000048C9C430484048C02FA01F5ADB22C43DA
:101FC000048430BD30B5002304248C40A3B2048CBB
:101FD0009C430484048C02FA01F5ADB22C430484C2
:101FE00030BD70B503460020002418461830012586
:101FF0008D40ACB21D8CA5431D8409B1082909D1BF
:1020000000EB6100056825F0700505600568154363
:1020100005600EE00D1FC5F34E052844056825F444
:10202000E045056005684FF6FF7606EA022635436F
:10203000056070BD21B1028842F00202028004E016
:1020400002884FF6FD731A400280704721B1028862
:1020500042F00402028004E002884FF6FB731A404B
:102060000280704721B1828842F08002828004E0C1
:1020700082884FF67F731A408280704702884FF63D
:10208000F7731A40028002880A43028070478288F0
:102090004FF68F731A40828082880A43828070478D
:1020A00002894FF6F8731A40028102890A430281BD
:1020B000704702894FF67F731A40028102890A43F2
:1020C000028170478184704781857047818670479F
:1020D0000187704781877047A0F8401070470288D9
:1020E0004FF6FF431A40028002880A43028070477D
:1020F0000146888E70470146088F70470146888FD9
:1021000070470146B1F8400070470146888C70471F
:102110000146088D704702460020138A0B400BB120
:10212000012000E000207047CA430282704730B5AA
:102130000246002000230024158A05EA0103958940
:1021400005EA010413B10CB1012000E0002030BD0C
:10215000CA43028270470000DF48006840F0010077
:10216000DD49086008464068DC490840DA494860B3
:1021700008460068DA490840D74908600846006800
:1021800020F4802008600846406820F4FE00486083
:102190004FF41F0088607047CF49096821F48031EF
:1021A000CD4A11601146096821F480211160B0F513
:1021B000803F03D0B0F5802F0ED106E0C6490968F4
:1021C00041F48031C44A116007E0C349096841F411
:1021D000A021C14A116000E000BF00BF704710B5E8
:1021E00001460022002300204A11012A02D1BA4CE4
:1021F000236806E0022A02D1B74C236A01E0B64CFC
:10220000636A01F01F02012494401C400CB10120BC
:1022100000E0002010BD38B500200090002400250B
:1022200000BF3120FFF7DBFF05460098401C0090FF
:102230000098B0F5A06F01D0002DF2D03120FFF74B
:10224000CEFF08B1012400E00024204638BD01463D
:102250000020A14A106820F0F80040EAC100106098
:102260007047A04908607047024600209A4B5868A2
:1022700020F47C1042EA01031843974B58607047E2
:1022800098490866704701460020934A506820F03C
:1022900003000843506070478F48406800F00C000E
:1022A0007047014600208C4A506820F0F000084337
:1022B0005060704701460020874A506820F4E06073
:1022C00008435060704701460020834A506820F45C
:1022D000605040EAC1005060704729B17E4A527A8E
:1022E00002437D4B5A7204E07B4A527A82437A4B16
:1022F0005A7270477B49D831086070470146002008
:10230000754A506820F440400843506070470021EF
:10231000714A20321170704A82F82010012802D0D0
:1023200004280AD104E001216B4A2032117005E033
:102330000521694A2032117000E000BF00BF7047DC
:102340006949086070476449096A0143624A116239
:102350007047654944390860704730B50021002254
:10236000002400235C4D6D6805F00C0121B10429A7
:1023700005D0082923D105E05C4D056022E05B4DC6
:1023800005601FE0544D6D6805F47012524D6D6884
:1023900005F48034022505EB92421CB9544D554397
:1023A00005600BE04C4D6D6805F400351DB1504DD6
:1023B0005543056002E04D4D5543056002E04B4D2D
:1023C000056000BF00BF444D6D6805F0F0010909CC
:1023D000484D6B5C0568DD4045603F4D6D6805F418
:1023E000E061090A434D6B5C4568DD4085603A4D0C
:1023F0006D6805F46051C90A3E4D6B5C4568DD406F
:10240000C560354D6D6805F44041890B3A4D6B5CF4
:10241000C568B5FBF3F5056130BD29B12E4A526997
:1024200002432D4B5A6104E02B4A526982432A4BE6
:102430005A61704729B1284A92690243264B9A6132
:1024400004E0254A92698243234B9A61704729B17F
:10245000214AD2690243204BDA6104E01E4AD26964
:1024600082431D4BDA61704729B11B4AD26802438F
:10247000194BDA6004E0184AD2688243164BDA60DE
:10248000704729B1144A12690243134B1A6104E0E0
:10249000114A12698243104B1A6170471249403940
:1024A000086070470F49C86470470B49C87170478E
:1024B0000948406A40F08070074948627047014609
:1024C0000020054A92680A400AB1012000E000207D
:1024D0007047014988727047001002400000FFF801
:1024E000FFFFF6FE000042428004424200127A00E2
:1024F00000093D0014000020240000204FF0E020DF
:10250000006920F004004FF0E021086109203649FD
:1025100008700846007800EB4001C1EBC0104FF690
:10252000FF7101EAC000314908807047002120F0A6
:102530007F402D4A127842434FF0E0235A61002237
:102540009A6101221A6100BF4FF0E022116901F087
:1025500001021AB101F48032002AF5D000224FF0B6
:10256000E0231A619A617047002100B9704720F09A
:102570007F401E4A128842434FF0E0235A610022F6
:102580009A6101221A6100BF4FF0E022116901F047
:1025900001021AB101F48032002AF5D000224FF076
:1025A000E0231A619A6100BFE0E770B50446002697
:1025B00000254FF4FA7094FBF0F0C6B24FF4FA70B5
:1025C00094FBF0F100FB114085B205E04FF4FA7086
:1025D000FFF7CAFF701EC6B2002EF7D115B128460C
:1025E000FFF7C2FF70BD0000280000202A00002075
:1025F00010B586B0044601210420FFF71BFF01211E
:102600008803FFF717FF18208DF817004FF40070AC
:10261000ADF8140003208DF8160005A96B48FEF7ED
:1026200013F904208DF817000002ADF81400032000
:102630008DF8160005A96548FEF706F901940020FB
:10264000ADF810000C20ADF80E000020ADF80C0025
:10265000ADF80A00ADF8080001A95D48FEF785FA5B
:1026600001215B48FEF70DFB012240F2255158483D
:10267000FEF713FB25208DF8000001208DF80300E4
:1026800000208DF8010002208DF802006846FEF758
:1026900012F806B010BD10B586B004460121042022
:1026A000FFF7C8FE01214804FFF7D1FE18208DF87E
:1026B00017000420ADF8140003208DF8160005A9BA
:1026C0004248FEF7C1F804208DF817000820ADF845
:1026D000140003208DF8160005A93C48FEF7B4F855
:1026E00001940020ADF810000C20ADF80E00002081
:1026F000ADF80C00ADF80A00ADF8080001A93548A6
:10270000FEF733FA01213348FEF7BBFA012240F20B
:1027100025513048FEF7C1FA26208DF8000001202F
:102720008DF8030000208DF801008DF80200684646
:10273000FDF7C1FF06B010BD2DE9F04107460C467C
:10274000154600260DE014F8011B3846FEF706FB7F
:1027500000BF40213846FEF76FFB0028F9D0701CFF
:1027600086B2AE42EFDBBDE8F0810FB430B5CBB03E
:10277000054601AC50A800904FF4947101A8009B4D
:102780004F9A06F079FD002000900BE014F8011B31
:102790002846FEF7E3FA00BF40212846FEF74CFB2F
:1027A0000028F9D020780028F0D14BB030BC5DF87B
:1027B00014FB10B540F225510548FEF753FB18B144
:1027C00020210348FEF745FB10BD00000008014032
:1027D000003801400044004070B505460C46012D0C
:1027E00006D1224641031548FEF7DFF8144804706D
:1027F000022D06D1224669031048FEF7D6F810488C
:10280000047070BD08B501211020FFF713FE1020E1
:102810008DF803004FF4C040ADF8000003208DF8A0
:10282000020069460548FEF70FF800210120FFF776
:10283000D3FF00210220FFF7CFFF08BD00100140A9
:102840002C0000201FB501210420FFF7F3FD01211A
:102850000846FFF7EFFD48208DF80F000220ADF885
:102860000C0003208DF80E0003A91F48FDF7ECFFB4
:102870000220019000208DF808000C208DF809003E
:1028800001208DF80A0001210020FEF7F3F801A8CD
:10289000FDF78CFE07208DF8000002208DF8010066
:1028A0008DF8020001208DF803006846FDF703FF54
:1028B0001FBD10B50A20FFF778FE00BF02210A48AD
:1028C000FEF755F80128F9D008480078012803D10F
:1028D0000021FFF781FF03E001210846FFF77CFF9D
:1028E0000220FDF7DAFE10BD000801402C00002098
:1028F00010B56648006820F00F006449086008467B
:10290000006840F003000860002201215F48FEF7E4
:102910004CF81420FFF749FE012211465B48FEF7F0
:1029200044F81E20FFF702FE10BD10B500245748E2
:10293000006820F00F00554908600846006840F024
:102940000800086004E0601CC4B20120FFF7EEFD3F
:1029500001214E48FEF70BF808B1642CF3DB642C20
:1029600001DB012010BD002404E0601CC4B2012082
:10297000FFF7DCFD01214548FDF7F9FF08B9642C9C
:10298000F3DB642C01DB0120ECE70020EAE710B563
:10299000002404E0601CC4B20120FFF7C7FD012140
:1029A0003A48FDF7E4FF08B1642CF3DB002404E0AF
:1029B000601CC4B20120FFF7B9FD01213348FDF7C7
:1029C000D6FF08B9642CF3DB2820FFF7AFFD012107
:1029D0002E48FDF7CCFF08B1012010BD0020FCE718
:1029E00070B50024002506E06006040EFFF7CFFF57
:1029F0000443681CC5B2082DF6DB204670BD7CB5CB
:102A000005460E46FFF774FFFFF78FFFF8B9002465
:102A100005E0FFF7E5FF0DF80400601CC4B2052CCB
:102A2000F7DB9DF800009DF8011008449DF80210A6
:102A300008449DF8031008449DF80410884208D10A
:102A40009DF8000030709DF80200287001E0012020
:102A50007CBD0020FCE708B501210420FFF7EAFC5B
:102A60000120ADF8000010208DF8030003208DF840
:102A7000020069460548FDF7E7FE01210348FDF71E
:102A800090FFFFF735FFFFF750FF08BD000801403A
:102A900010B5044622464FF48071FE48FDF785FFCD
:102AA00010BD10B5044622464FF40071F948FDF7F9
:102AB0007CFF10BD08B501210820FFF7BBFC1420E6
:102AC0008DF8030003208DF802004FF48070ADF8FC
:102AD00000006946EF48FDF7B7FE4FF40070ADF80F
:102AE00000006946EB48FDF7AFFE0120FFF7D0FF7D
:102AF0000120FFF7D6FF08BD10B50120FFF7D1FF79
:102B00000120FFF7C5FF0020FFF7CBFF0020FFF7F4
:102B1000BFFF10BD10B50020FFF7C3FF0120FFF776
:102B2000B7FF0120FFF7BDFF10BD70B505460024BB
:102B300011E080212141294009B1012100E000215B
:102B40000846FFF7AEFF0120FFF7A2FF0020FFF7C6
:102B50009FFF601CC4B2082CEBDB0120FFF798FF3D
:102B60000020FFF795FF70BD10B50446FFF7C4FFC6
:102B70007820FFF7DAFF0020FFF7D7FF2046FFF7A6
:102B8000D4FFFFF7C7FF10BD70B505460E46FFF72F
:102B9000B3FF7820FFF7C9FF4020FFF7C6FF0024EE
:102BA00004E0285DFFF7C1FF601CC4B2B442F8DB4B
:102BB000FFF7B0FF70BD70B505460C4645F0B0009C
:102BC000FFF7D2FF102141EA1410FFF7CDFF04F008
:102BD0000F00FFF7C9FF70BD10B500240BE0002106
:102BE0002046FFF7E8FFAC4901EBC4108021FFF756
:102BF000CBFF601CC4B2082CF1DB10BD00200CE040
:102C0000002106E00022A44B03EBC0135A544A1CD7
:102C1000D1B28029F6DB421CD0B20828F0DB704725
:102C200010B5FFF747FFAE20FFF79EFFD520FFF757
:102C30009BFF8020FFF798FFA820FFF795FF3F201C
:102C4000FFF792FFD320FFF78FFF0020FFF78CFFE5
:102C50004020FFF789FFA120FFF786FFC820FFF77C
:102C600083FFDA20FFF780FF1220FFF77DFF81202E
:102C7000FFF77AFFCF20FFF777FFD920FFF774FF28
:102C8000F120FFF771FFDB20FFF76EFF3020FFF729
:102C90006BFFA420FFF768FFA620FFF765FF8D20DC
:102CA000FFF762FF1420FFF75FFFAF20FFF75CFF25
:102CB000FFF7A4FFFFF790FF10BD10B502460120FB
:102CC00000E050430B1EA1F10101FAD110BD2DE926
:102CD000F04706460D46174698462846E91705EB85
:102CE0005171C9100FFA81F905EB0801481EC1178F
:102CF00000EB5171C910491C0FFA81FA002D07DA57
:102D0000A9F101000FFA80F9AAF101000FFA80FA87
:102D10004C4614E0002E10DB7F2E0EDC002C0CDB6A
:102D2000072C0ADCF1B2E0B2FFF745FF5A4901EB8C
:102D3000C41188193946FFF727FF601C04B25445B7
:102D4000E8DBBDE8F0872DE9F04304460D46164662
:102D50001F46284638E0224631E0002A2DDB7F2A34
:102D60002BDC002829DB3F2827DC4FEAE07C00EB46
:102D70005C7C4FEAEC0CDFF8208108EBCC1C1CF8E3
:102D800002C003464FEAE07800EB58784FEAE808C3
:102D9000A0EBC8094FF0010808FA09F82CEA080C62
:102DA00001464FEAE07800EB58784FEAE808DFF890
:102DB000E89009EBC81808F802C0511C0AB2A11922
:102DC0009142CADC411C08B2E9198142C3DCBDE86A
:102DD000F0832DE9FF4F80460E469146DDF834B072
:102DE000002500244A4631464046039BFFF7ABFFCF
:102DF00000BF63E000255DE008EB0500002857DB1D
:102E000008EB05007F2853DC3046F11706EB5171C3
:102E1000C9100FB2F11706EB5171C910A6EBC10A28
:102E2000002E05DA781E07B20AF108000FFA80FAC0
:102E30003819002817DB3819072814DC3819164907
:102E400001EBC01008EB0501405C04FB09511BF8C5
:102E5000011001FA0AF1084339190F4A02EBC111B6
:102E600008EB050288543819401C002820DB38196B
:102E7000401C07281CDC3819401C074901EBC01016
:102E800008EB0501405C04FB09511BF80110CAF175
:102E9000080203E0000C0140CC000020114108436F
:102EA0003919491CA24A02EBC11108EB05028854EA
:102EB000681CC5B24D459FDB601CC4B20399481E17
:102EC000C11700EB5171012202EBE101A14291DC3B
:102ED000BDE8FF8FF8B506460F4614461D46082D7F
:102EE0000CD1A4F12000934901EB0010102308221B
:102EF000394600903046FFF76CFF0FE0062D0DD1EC
:102F0000A4F1200000EB40008B4901EB40000823B6
:102F10000622394600903046FFF75BFFF8BD2DE9E9
:102F2000F0410646884615461F46002409E02A5D02
:102F300004FB076108B23B464146FFF7CBFF601C2C
:102F4000C4B2285D0028F2D1BDE8F0812DE9F04738
:102F50000646894617461D46DDF82080002417E006
:102F6000281B411E0A20FFF7A8FEB7FBF0F00A213C
:102F7000B0FBF1F201FB120000F1300A04FB086122
:102F800008B2434652464946FFF7A4FF601CC4B24C
:102F9000AC42E5DBBDE8F0872DE9FF5F86B0074670
:102FA00014461D46DDF85080169E0022134620462A
:102FB00029460AF05BFC06D833462B22384607998F
:102FC000FFF788FF07E033462D2238460799FFF7C1
:102FD00081FF85F00045204629460AF0B5FA824671
:102FE00050460AF0F5FA22462B46CDE904010AF0D4
:102FF000CDFC04460D460A201599FFF75EFE81467A
:1030000048460AF0E5FA22462B46CDE900010AF0CF
:103010002FFBCDE9020109F03BFFCDE904010AF0E5
:1030200093FA8346BBFBF9F08244B91908B24346D0
:10303000524600960799FFF789FF08F1010101FB4D
:10304000067108B233462E220799FFF743FF08F1B5
:10305000020101FB067108B200965A46159B0799BA
:10306000FFF774FF0AB0BDE8F09F2DE9FC478046EA
:103070008946164600270020019000253AE0705D41
:1030800001A9C855781CC7B2022F31DB00270024E4
:103090000CE0C4EBC40101EB8101284A881801A9A6
:1030A00006F0B8FD00B90CE0601CC4B2C4EBC4016A
:1030B00001EB8101214A881821A106F0ABFD00280F
:1030C000E7D100BFC4EBC40000EB80001B490844FB
:1030D000C01C05F1010A0AEBDA714910491E08EB20
:1030E0000111009008B210231A464946FFF771FEFD
:1030F000681CC5B2705D0028C1D1BDE8FC870FB463
:1031000070B5C2B005460E4614464AA8019002A802
:10311000019A499906F09EF800200190234602AAE0
:1031200031462846FFF7FBFE42B070BC5DF814FB49
:10313000CC000020BCE40008ACEA0008E6EC000883
:103140000000000008B501210420FFF773F91020EA
:10315000ADF8000000208DF8030069464548FDF7F2
:1031600073FB00F055F908BD10B50521042000F0EF
:1031700083F910BD70B50024002507E0FFF7F4FFC8
:1031800004440520FFF711FA681CC5B20A2DF5DBCF
:103190000A20B4FBF0F4A0B270BD2DE9F04F89B065
:1031A0000024A146DFF8D0B0A24600200790069088
:1031B00010E0FFF7D9FF06460AF040FF054621461A
:1031C0000AF0ECFD04460520FFF7EFF909F10100D4
:1031D00000F0FF09B9F10A0FEBDB284920460AF09D
:1031E0004BFE0446264920460AF070FF05464FF084
:1031F0008B410AF041FE824650460AF0A3FD0022B0
:10320000204BCDE902010AF033FACDE90401514621
:103210001B480BF059F803900AF094FD0746DDE9CE
:10322000042309F0CDFF054609F0DCFE079007985E
:103230000AF088FD05460E4658460AF083FD124AFC
:10324000124BCDE900010AF013FA2A463346CDE9C4
:10325000020109F0B5FF4FF060420D4BCDE90401CA
:1032600009F02AF9074609F0BDFE0690069809B054
:10327000BDE8F08F00080140E17AD4400000204111
:103280000000A0400000E03FA089B0E1E915274020
:10329000F0F4E43F08B501210420FFF7CBF820202B
:1032A000ADF8000010208DF8030003208DF8020017
:1032B00069465448FDF7C8FA20215248FDF771FBD2
:1032C00008BD10B500205049087020214D48FDF779
:1032D00068FB10BD01204C49087000204B49088054
:1032E000704702204849087000204849088070470C
:1032F000032045490870002044490880704710B5F4
:103300004148007820B920213E48FDF74AFB10BD16
:103310003E480088401C3D4908803B480078012811
:103320000FD108460088032804DC20213548FDF72A
:103330003AFB06E020213348FDF733FB00203249F9
:10334000087031480078022821D1304800880228CE
:1033500004DC20212B48FDF726FB18E02B480088D1
:10336000042804DC20212748FDF71BFB0FE0274839
:103370000088052804DC20212248FDF714FB06E024
:1033800020212048FDF70DFB00201F4908701E4832
:103390000078032833D11D480088012804DC20214F
:1033A0001848FDF700FB2AE018480088022804DCD2
:1033B00020211448FDF7F5FA21E01448008804287C
:1033C00004DC20210F48FDF7EEFA18E00F480088D2
:1033D000052804DC20210B48FDF7E3FA0FE00B4839
:1033E0000088062804DC20210648FDF7DCFA06E008
:1033F00020210448FDF7D5FA00200349087000BFDA
:1034000085E70000000801402F0000203000002068
:1034100000B585B001214802FFF70CF84FF40040D9
:10342000FEF76CFF0020009003904FF460200290A4
:1034300000208DF805008DF8040001208DF81000A3
:1034400069461948FDF779FD01211748FDF7A1FDEF
:103450001548FDF7C0FD00BF1348FDF7C1FD012869
:10346000FAD01148FDF7C6FD00BF0F48FDF7C7FDB4
:103470000128FAD005B000BD70B504460D462B46B4
:10348000012221460848FDF7F0FD01210648FDF71D
:10349000C0FD00BF02210448FDF72CFF0028F9D031
:1034A0000148FDF749FE70BD0024014010B500F051
:1034B0008CF810BD2DE9F0410446134920460AF06E
:1034C000DBFC804611490AF001FE074610490AF06C
:1034D00065FC06460AF092FD85B2284600F0C7F862
:1034E000BDE8F08110B50446012C06D10948FFF76C
:1034F000E1FF01200849087005E00020FFF7DAFF2E
:1035000000200549087010BD000034430000FA4453
:103510000000FA430000B4423200002000B589B038
:1035200001210220FEF793FF01210420FEF782FF14
:1035300018208DF82300C020ADF8200003208DF85E
:10354000220008A94D48FDF77FF94D48FEF75AFBC8
:103550000020ADF81A00ADF816006320ADF8180091
:103560002320ADF8140000208DF81C0005A9444864
:10357000FDF7B8FF01A8FEF7EAFA6020ADF80400F5
:103580000020ADF80C000120ADF806000020ADF8D9
:103590000A0001A93A48FDF7E2FF01A93848FEF701
:1035A00020F801213648FEF7F9FA09B000BD10B540
:1035B000044621463248FEF789FD10BD10B5044689
:1035C00021462F48FEF784FD10BD00B589B00121CA
:1035D000C802FEF72FFF01210420FEF72BFF182061
:1035E0008DF823004FF48070ADF8200003208DF893
:1035F000220008A92148FDF727F92248FEF702FB1F
:1036000005A8FEF79BFA0020ADF81A00ADF81600E9
:1036100044F61F60ADF818004720ADF814000020F4
:103620008DF81C0005A91748FDF75CFF01A8FEF7FF
:103630008EFA6020ADF804000020ADF80C000120E7
:10364000ADF806000020ADF80A0001A90D48FDF70D
:1036500086FF01A90B48FDF782FF01210948FEF70B
:10366000A9FA01210748FEF799FA09B000BD10B583
:10367000044621460348FEF729FD10BD000801401D
:1036800000040040002C014008B501210820FEF78D
:10369000D1FE10208DF803004FF44C60ADF800000F
:1036A00003208DF8020069463848FDF7CDF8FFF792
:1036B00035FF08BD10B50446FEF720FF012C14D1DC
:1036C0003220FFF774FF40213048FDF76AF980216E
:1036D0002E48FDF768F94FF47A70FEF745FF002099
:1036E000FFF765FF01202A490870A4B93220FFF7CF
:1036F0005EFF40212548FDF756F980212348FDF75C
:1037000050F94FF47A70FEF72FFF0020FFF74FFFBC
:1037100000201F49087010BD70B505460C467DB9E4
:103720004FF480611948FDF73CF94FF400611748E8
:10373000FDF739F90020FFF741FF00201549087017
:10374000012D0FD1002C0DDBA9021048FDF729F93E
:10375000E9020E48FDF727F9A0B2FFF72FFF01207D
:103760000C490870012D10D1002C0EDAA90207486F
:10377000FDF719F9E9020548FDF713F9614288B22E
:10378000FFF71CFF01200349087070BD000C0140C9
:10379000340000203300002008B501211020FEF77E
:1037A00049FE48208DF803004FF40040ADF80000BA
:1037B00003208DF8020069460648FDF745F8002011
:1037C0000549087008BD10B54FF400410148FDF7E8
:1037D000CEF810BD001001403500002008B5FEF7FE
:1037E0008DFE01210820FEF725FE4FF48050ADF834
:1037F000000003208DF8020010208DF803006946B8
:10380000FD48FDF721F84FF40050ADF8000003200B
:103810008DF8020010208DF803006946F648FDF788
:1038200013F84FF40040ADF8000003208DF80200BB
:1038300010208DF803006946EF48FDF705F84FF4B6
:103840008040ADF8000003208DF8020004208DF8C0
:1038500003006946E848FCF7F7FF0120ADF80000D7
:1038600003208DF8020010208DF803006946E2481D
:10387000FCF7EAFF08BD2DE9F041064600254FF4AC
:103880000051DD48FDF78FF80220FEF74FFE4FF4A0
:103890008051D948FDF787F80220FEF747FE7E20C9
:1038A00000EA460040F08007082424E007F080008A
:1038B00028B14FF40041D048FDF773F804E04FF40D
:1038C0000041CD48FDF76FF80220FEF72FFE4FF4C0
:1038D0000051C948FDF765F80220FEF727FE78067B
:1038E000070E4FF40051C448FDF75DF80220FEF7C3
:1038F0001DFE601EC4B2002CD8DC082419E04FF471
:103900000051BD48FDF74DF80220FEF70FFE680696
:10391000050E4FF48041B848FDF729F805434FF4F0
:103920000051B548FDF73FF80220FEF7FFFD601E8D
:10393000C4B2002CE3DC4FF40051AF48FDF731F87E
:103940000220FEF7F3FD4FF48051AB48FDF729F854
:103950000220FEF7EBFD2846BDE8F0812DE9F0419D
:1039600006460D464FF40051A348FDF71CF84FF4EE
:103970008051A148FDF717F87E2000EA4607082489
:1039800024E007F0800028B14FF400419A48FDF789
:1039900008F804E04FF400419748FDF704F80220CE
:1039A000FEF7C4FD4FF400519348FCF7FAFF0220E4
:1039B000FEF7BCFD7806070E4FF400518E48FCF769
:1039C000F2FF0220FEF7B2FD601EC4B2002CD8DC6C
:1039D000082424E005F0800028B14FF40041864817
:1039E000FCF7DFFF04E04FF400418348FCF7DBFF06
:1039F0000220FEF79BFD4FF400517F48FCF7D1FFFA
:103A00000220FEF793FD6806050E4FF400517A4838
:103A1000FCF7C9FF0220FEF789FD601EC4B2002C2E
:103A2000D8DC4FF400517448FCF7BBFF0220FEF7CE
:103A30007DFD4FF480517048FCF7B3FF0220FEF784
:103A400075FDBDE8F08110B501216B48FCF7A9FFB9
:103A50000120FEF76BFD01216748FCF7A4FF012060
:103A6000FEF764FD01216448FCF79BFF0120FEF78F
:103A70005DFD0F210120FFF771FF00BF0120FFF75F
:103A8000FAFE00F010000028F8D10120FEF74EFDEC
:103A90003D211120FFF762FF1E212D20FFF75EFF61
:103AA00000212C20FFF75AFF8D212A20FFF756FF17
:103AB0003E212B20FFF752FF40211520FFF74EFF3C
:103AC000262010BD70B505460C4600262846FFF797
:103AD000D2FE064646EA04012846FFF73FFF70BDC6
:103AE00070B505460C4600262846FFF7C4FE06467C
:103AF00026EA04012846FFF731FF70BD2DE9FE4F8D
:103B00000646884691469A46DDF830B0BB200290C2
:103B10000020019000900C2E06D00E2E09D112200C
:103B200001901020009005E0772001903020009057
:103B300000E000BF00BF019840F080010220FFF7C5
:103B40000DFF80210420FFF7CBFF00210120FFF7AC
:103B500005FF80210A20FFF7B5FF002505E018F8D2
:103B600005100920FFF7FAFE6D1C4D45F7D33146CD
:103B70000120FFF7F3FE0C2E03D180210D20FFF76B
:103B8000A1FF0420FFF777FE044640F2DC5500BF9A
:103B90000420FFF770FE04466D1E35B104F00100ED
:103BA00018B9009820400028F2D080210D20FFF79E
:103BB00097FF05B30620FFF75EFE00F01B0080BBF9
:103BC000262002900198204000F0010008B1CC208E
:103BD00002900C2E28D10A20FFF74DFE04460C203F
:103BE000FFF749FE00F0070747B1601E07EBC00072
:103BF000CBF8000005E017E0000C0140E000CBF836
:103C0000000004B90124122C00DD1224002505E077
:103C10000920FFF730FE0AF805006D1CA542F7D316
:103C200002E0FFE7BB20029080210C20FFF74AFF53
:103C300000210120FFF792FE0298BDE8FE8F10B52B
:103C40001420FFF718FE044604F0030018B90321FE
:103C50001420FFF737FF10BD10B503211420FFF724
:103C60003FFF10BD2DE9F041074688461546042167
:103C70000520FFF735FF00210120FFF76FFE8021AF
:103C80000A20FFF71FFF002405E0395D0920FFF738
:103C900065FE601CC4B24445F7DB03210120FFF739
:103CA0005DFEFF2400BF0520FFF7E5FD0646601E10
:103CB000C4B21CB106F004000028F4D02220FFF7A3
:103CC000DAFD28702120FFF7D6FD6870BDE8F0818D
:103CD00010B588B050208DF8080000208DF809003C
:103CE0000DF10A02022102A8FFF7BCFF07A802ABF0
:103CF000042202A900900C20FFF700FF04462620B2
:103D000008B010BD70B588B005460C4608210846BD
:103D1000FFF7E6FE07210D20FFF720FE0321142008
:103D2000FFF7D0FE8DF8085007A802AB012202A9C8
:103D300000900C20FFF7E2FE0646262E09D10798D8
:103D4000102806D19DF8080020709DF809006070C9
:103D500000E0BB26304608B070BDF0B587B0054620
:103D6000002708210846FFF7BBFE00210D20FFF7C2
:103D7000F5FD80210E20FFF7B3FE93208DF804009F
:103D800020208DF8050006A801AB022201A90090B1
:103D90000C20FFF7B3FE0646262E10D1002407E0C4
:103DA00001A8005D285501A8005D4740601CC4B211
:103DB000042CF5DB01A8005DB84200D0BB268021B1
:103DC0000E20FFF77FFE304607B0F0BD70B588B01B
:103DD000054693208DF8080070208DF8090000201A
:103DE0008DF80E0000240BE0295D02AAA01C1154DE
:103DF0009DF80E00295D48408DF80E00601CC4B28D
:103E0000042CF1DB0DF10F02072102A8FFF72AFFB6
:103E100008210846FFF764FE07A802AB092202A9A1
:103E200000900C20FFF76AFE0646262E03D1079865
:103E3000182800D100E0BB26304608B070BD2DE93F
:103E4000F04387B006460F46904699468DF80460C9
:103E50008DF80570002406E018F8041001AAA01CD3
:103E60001154601CC4B2062CF6DB002407E019F8DC
:103E7000041001AA04F108001154601CC4B2062CFD
:103E8000F5DB06A801AB0C2201A900900E20FFF77C
:103E900035FE0546262D05D10820FFF7ECFC00F085
:103EA000080000B9BB25284607B0BDE8F083F0B58F
:103EB00087B005460E4630208DF804008DF8055079
:103EC0000DF10602022101A8FFF7CCFE06A801AB06
:103ED000042201A900900C20FFF710FE0746262FB0
:103EE0000CD10698902809D1002404E001A8005DB7
:103EF0003055601CC4B2102CF8DB00E0BB273846FC
:103F000007B0F0BDF0B587B006460F46A0208DF88B
:103F100004008DF805600DF10602022101A8FFF7EB
:103F2000A1FE06A801AB042201A900900C20FFF716
:103F3000E5FD0546262D08D10698042805D19DF8F3
:103F4000040000F00F000A2800D0BB25262D22D146
:103F5000002404E0385D01A90855601CC4B2102C8F
:103F6000F8DB05AA102101A8FFF77CFE06A801AB2B
:103F7000122201A900900C20FFF7C0FD0546262D56
:103F800008D10698042805D19DF8040000F00F0020
:103F90000A2800D0BB25284607B0F0BD38B501215E
:103FA0000D20FEF747FA01216548FCF71EFD482069
:103FB0008DF8030003208DF8020000240EE0614814
:103FC00000EB04108088ADF800005E4901EB04119D
:103FD00008686946FCF738FC601CC4B2052CEEDBAF
:103FE00038BD70B5002487E0564A02EB0412918870
:103FF000544A02EB04121068FCF7B9FC054651481C
:1040000000EB0410807930B1012810D0022835D09F
:10401000032868D15AE04DB94B484A4901EB0411D5
:1040200088600120474901EB0411887161E045492E
:1040300001EB0411886800210AF014F90CD24149FF
:1040400001EB041188684FF07E510AF03DF93D49BB
:1040500001EB0411886010E055B93C48394901EB87
:10406000041188600220374901EB0411887104E0D3
:104070000020344901EB041188713AE0012D05D18B
:104080000320304901EB041188711EE02D4901EB3A
:104090000411886800210AF0E5F80CD2294901EBE7
:1040A000041188684FF07E510AF00EF9254901EBA2
:1040B0000411886009E00120224901EB04114873D2
:1040C0000020204901EB0411887112E0012D09D173
:1040D00001201C4901EB041108730020194901EB70
:1040E0000411887105E00020164901EB0411887164
:1040F00000BF00BF601CC4B2052CFFF675AF70BDD9
:104100000146052901DB002070470E4800EB011035
:10411000027B00200B4B03EB011318731046F3E7EF
:104120000146052901DB00207047064800EB01101D
:10413000427B0020034B03EB011358731046F3E757
:104140000002300038000020CDCCCC3D00004040C3
:10415000FD480068401CFC4908607047FA48006848
:10416000704770B588B0FFF718F8F8490860FFF796
:104170002AFBF7490870F748007808B9012000E0E9
:1041800000200646F4480278F4A1684605F08EF84F
:1041900008236A4600211E20FEF7C1FEF04802787F
:1041A000EEA1684605F082F808236A4600216020E7
:1041B000FEF7B5FEE548006809F0C4FD0446224656
:1041C0000B46E8A1684605F071F808236A461021FD
:1041D0002820FEF7A4FEE6480078012804D1E5A2D5
:1041E00020212A20FEF741FFE148007820B9E2A211
:1041F00020212A20FEF739FFE0480078012804D169
:10420000DFA230212A20FEF730FFDC48007820B9F9
:10421000DCA230212A20FEF728FFDB4800780128A5
:1042200004D1D4A220216C20FEF71FFFD6480078CD
:1042300020B9D1A220216C20FEF717FFD3480078C7
:10424000012804D1CBA230216C20FEF70EFFCF480D
:10425000007820B9C8A230216C20FEF706FF08B014
:1042600070BD70B5054600240BE0C94901EB840020
:104270000422294605F048FB08B9012070BD601CE6
:10428000C4B2C44800788442EFDB0020F6E710B5E2
:104290000446C04800780A2800DB10BD2046FFF71E
:1042A000E0FF00B1F9E7BA48BA49097800EB8100AC
:1042B00021680160B7480078401CB649087000BF0B
:1042C000EBE710B5B4A200210846FEF7CEFE0623A8
:1042D000B3A200213820FEF722FEB2A20021422024
:1042E000FEF7C3FE0623B1A200217820FEF717FED9
:1042F000AFA210210020FEF7B8FE0623AEA21821BF
:104300002020FEF70CFEADA220210020FEF7ADFE1E
:104310000623A9A228212020FEF701FEA9A2202120
:104320004220FEF7A2FE0623A3A228216220FEF768
:10433000F6FDA6A230210020FEF797FE06239EA2DE
:1043400038212020FEF7EBFDA2A230214220FEF70B
:104350008CFE062398A238216220FEF7E0FDFEF7CE
:104360003BFC10BD10B54FF4A060FCF79FF9FEF7C1
:10437000C5F84FF4E130FEF73BF94FF4E130FEF7BA
:104380008AF9FEF75FFAFFF7C9F8FFF78FF8FFF732
:104390007BF9FFF701FAFFF721FAFFF7FFFDFEF7C0
:1043A00079FFFCF754F8FFF719FAFFF74CFBFFF71A
:1043B00046FC02E00A20FEF7D7F8FEF74CFB002887
:1043C000F8D1FEF71FFAFEF7BDFE02F039FC10BD72
:1043D00000250024FEF724FCFEF710FC4FF4E1302A
:1043E000FEF759F9FFF7BEFF00F0E6FB7BA182481C
:1043F000FEF7BBF9062381A209210020FEF78FFDFD
:10440000FEF7EAFB03E04FF4FA70FEF7ADF881A186
:1044100082A002F0B6FB0028F5D18CA17648FEF709
:10442000A4F9062391A212210020FEF778FDFEF7E1
:10443000D3FB03E04FF4FA70FEF796F800F028FC87
:104440000028F7D18FA16C48FEF78FF9062394A2BC
:104450001B210020FEF763FDFEF7BEFB012108468D
:10446000FEF7BAF940F6C410FEF79FF800210120CC
:10447000FEF7B2F990A16048FEF777F9062396A2FD
:1044800024210020FEF74BFDFEF7A6FB40F6B830D6
:10449000FEF76AF8FEF7B2FB00F08BFEFFF711FFA4
:1044A0000020FFF71FF8924800684FF47A72B0FBC3
:1044B000F2F1B1F1807F00D31DE021F07F40401E7A
:1044C0004FF0E022506150170F22002807DA13073F
:1044D0001F0E884B00F00F06361F9F5503E0130791
:1044E0001E0E854B1E5400BF00204FF0E02290614D
:1044F0000720106100BF25E21E2619491648FEF765
:104500007EFAFFF760F912490870FFF76AFDFEF7BF
:10451000F6FE0020FFF704FE48B1FEF7DBFE502157
:104520000120FFF7F9F875A13348FEF71EF90020C6
:10453000FFF7E6FD30B1FEF7D4FE00210846FFF795
:10454000EBF8E1E0E4E00000AC000020980000207F
:104550009E000020A50000209C0000202533640060
:104560009D000020252E31662070706D0000000037
:1045700033000020BFAA0000B9D800009F0000202F
:10458000D7D40000CAD6000034000020320000203A
:10459000CC04002088000020CEC2B6C80000000075
:1045A0006F000000CAAAB6C8000000002500000085
:1045B000D1CCCEED000000003A000000B7E7C9C83A
:1045C00000000000B4B0C1B100000000C4A3CABD27
:1045D00000000000B4F3C3C500000000436F6E6E1E
:1045E000656374204D51545473205365727665721F
:1045F0002E2E2E0D0A00000000380140436F6E6E13
:10460000656374204D5154547320536572766572FE
:104610002E2E2E00434F4E4E4543540041542B4303
:10462000495053544152543D22544350222C226D40
:10463000717474732E6865636C6F7564732E636F29
:104640006D222C313838330D0A000000436F6E6E36
:10465000656374204D515454205365727665722001
:10466000537563636573730D0A000000436F6E6ECC
:10467000656374204D51545420537563636573739F
:1046800021000000436F6E6E656374204F6E654EAF
:1046900045542053756363657373210D0A00000050
:1046A000436F6E6E656374204F6E654E45542053A4
:1046B0007563636573732100546970733A094F6EB3
:1046C000654E65745F53656E64446174612D4D5130
:1046D00054540D0A00000000546970733A204F6E64
:1046E000654E65745F53656E6444617461000000DB
:1046F0000000002018ED00E000E400E0313131312D
:1047000031313131720A00008FA19248FEF72DF845
:104710000120FFF705FD80B1FEF7DCFD0120FEF76B
:10472000C9FF4FF4FA70FDF740FF0020FEF73FFF8E
:10473000AFF238018748FEF718F80120FFF7E0FCD8
:1047400078B1FEF7CEFD0020FEF7B4FF4FF4FA700B
:10475000FDF72BFF0020FEF72AFF7BA17D48FEF727
:1047600004F80220FFF7DCFC48B1FEF7B3FD01209E
:10477000FEF7B8FEAFF27C017648FDF7F6FF0220A7
:10478000FFF7BEFC40B1FEF7ACFD0020FEF7AAFE2D
:104790006DA17048FDF7E9FF0320FFF7C1FC50B1A0
:1047A000FEF798FD01210220FEF716F8AFF2B401E2
:1047B0006848FDF7DAFF0320FFF7A2FC48B1FEF7D7
:1047C00090FD00210220FEF707F85FA16148FDF788
:1047D000CCFF0420FFF7A4FC60B101205E49087003
:1047E000FEF778FD5D48FEF765FEAFF2F00159482F
:1047F000FDF7BBFF0420FFF783FCA8B1FEF778FDAF
:104800005748007808B9012000E00020544908709A
:1048100001210220FDF7E0FF4FF4FA70FDF7C5FE1D
:1048200000210220FDF7D8FF4D48007801282BD148
:104830004C48007888B94C48007870B901204A4942
:104840000870FEF747FD0120FEF734FF4FF4FA70C1
:10485000FDF7ABFE0020FEF7AAFE424800780128D3
:1048600012D14148007801280ED100203E4908703D
:10487000FEF737FD0020FEF71DFF4FF4FA70FDF73D
:1048800094FE0020FEF793FE38492620FFF73AFAFF
:10489000262839D13548FFF760FA26282FD12E482F
:1048A0000078A0B13148FFF7F2FCFEF71AFD0121B4
:1048B0000846FDF791FF4FF4FA70FDF776FE0021F0
:1048C0000120FDF789FF00202349087012E02748E6
:1048D000FFF7C7FC60B1FEF7FDFC0120FEF702FE0A
:1048E000012023490870FFF739FC2249086001E0E4
:1048F000FEF7FEFCFFF7ECF9C820FDF756FE1B4A59
:104900001DA11448FDF731FF681C80B2054632280E
:1049100008DB1A491A48FEF772F800F0ECFB002594
:1049200002F010F9002002F069F9044614B12046A3
:1049300000F06AFCFFF715FCFEF74EF90A20FDF7C0
:1049400013FE00BFD8E5000032323232323232720A
:104950000A00000000380140890000200000B44235
:104960009F0000209E000020A0000020900000205A
:104970008A0000208C000020255800009D000020A7
:104980009C0000202DE9FC4105460C469046284637
:1049900009F0D8F94246CDE90001F1A1204604F022
:1049A00085FCBDE8FC81F0B58BB0054600260024EF
:1049B000284604F0F9FFC7B20DB11C2F02DA01201E
:1049C0000BB0F0BD06E0A85D01A988550020A855F0
:1049D000701CC6B2BE42F6DB002001A98855002635
:1049E000002455E001A8805D2B2810D008DC202889
:1049F00014D023282ED0252825D026283FD130E0DA
:104A00002F2812D03D2833D03F2838D114E0281960
:104A1000D5A105F033F8E01CC4B236E02819D3A1C3
:104A200005F02CF8E01CC4B22FE02819D0A105F045
:104A300025F8E01CC4B228E02819CEA105F01EF824
:104A4000E01CC4B221E02819CBA105F017F8E01C46
:104A5000C4B21AE02819C9A105F010F8E01CC4B2CC
:104A600013E02819C6A105F009F8E01CC4B20CE057
:104A70002819C4A105F002F8E01CC4B205E001A8A1
:104A8000805D2855601CC4B200BF00BF701CC6B258
:104A9000BE42A7DB0020285500BF91E72DE9F04F6B
:104AA000C9B005460C4616461F460DF5A47898E891
:104AB000000F0020489055B14CB1B348864206D350
:104AC0002FB1B9F1000F02D0BAF1780F03DA01204B
:104AD00049B0BDE8F08F402118A805F074F83846B9
:104AE00004F062FF05903B4648AA4021009018A8B8
:104AF00001F06CF8482106A805F065F8BBF1000F3D
:104B000009D0A2A03346A3A248218DE8310006A80F
:104B100004F0E2FB09E09DA03346A4A248218DE801
:104B20001101039506A804F0D7FB402128A805F041
:104B30004AF806A804F038FF059018A804F034FFDE
:104B4000049028A8009006AA18A8DDE9041300F034
:104B5000F7FE00204890402138A805F034F828A836
:104B600004F022FF059028AB48AA4021009038A805
:104B700000F08CFF38A8FFF716FFBBF1000F0CD038
:104B800038A882A12B4691A2CDE90046CDE90210BA
:104B90005146484604F0A0FB0CE038A87BA12B4608
:104BA000984ACDE901860094CDE903105146484664
:104BB00004F092FB00208BE72DE9F041ACB0012717
:104BC0000D250026002405F1F00004F083FA0646C6
:104BD0001EB938462CB0BDE8F08103E04FF4FA70FE
:104BE000FDF7C2FC88A18AA001F0CBFF0028F5D117
:104BF0000120902108AA0023CDE90032CDE902105E
:104C00008DA3994A99A19CA0FFF748FF9DA10D2073
:104C1000CDE9000105F1F00108AB9B4A304604F0F4
:104C20005BFB304604F0C0FE1FFA80F84146304678
:104C300001F0CDFFFA2001F0E1FF044624B193A179
:104C4000204604F04FFE0446CCB100200390924869
:104C500003A904AB914ACDE900109149204604F024
:104C6000F1FC04280AD18C48039904AB8B4ACDE9A6
:104C700000108CA19348FDF778FD002700BF304657
:104C800004F057FA90A191A001F07BFF3846A1E70C
:104C900030B5B3B000202F90309031903290012584
:104CA000A02107AA77A3CDE90032CDE9021062A3C3
:104CB0006D4A6EA170A0FFF7F1FE07A86BA371A269
:104CC00086A100907F48FDF750FD2FA8002102919A
:104CD0000391CDE9041008460121142369A2CDE90E
:104CE000001007A961A001F0D2F8002834D1309A51
:104CF00091B22F9801F06BFFFA2001F07FFF04467C
:104D0000002C2AD0204601F08DF8022825D120461B
:104D100001F022FA062821D2DFE800F003090E1381
:104D2000181D7AA16748FDF720FD00255AE17DA1F5
:104D30006448FDF71AFD55E183A16248FDF715FDB2
:104D400050E18CA15F48FDF710FD4BE193A15D4858
:104D5000FDF70BFD46E13BE149E144E13DE10000A7
:104D6000252E2A6600000000253242002532300040
:104D700025324600253346002532350025323300E2
:104D800025323600253344009554415D7368613106
:104D90000000000025640A25730A70726F64756351
:104DA00074732F25730A25730000000025640A25FB
:104DB000730A70726F64756374732F25732F646543
:104DC00076696365732F25730A25730076657273A0
:104DD000696F6E3D2573267265733D70726F6475E1
:104DE0006374732525324625732665743D25642634
:104DF0006D6574686F643D2573267369676E3D2524
:104E00007300000060F20008434F4E4E45435400CB
:104E100041542B43495053544152543D2254435022
:104E2000222C223138332E3233302E34302E33338D
:104E3000222C38300D0A000062584E7552314E4413
:104E4000634745344D5642544D4749785632387978
:104E50005758644E566D6B7954476C534D564246C5
:104E6000517A673D0000000000CF9D74394E5335E4
:104E70004A356A534D710000323031382D31302DB2
:104E80003331000064310000A8F2000864657669DF
:104E900063655F696400000004050020F4040020DD
:104EA00014F2000863726561746520646576696355
:104EB000653A2025732C2025732C2025642C202571
:104EC000730D0A00003801404F4B000041542B4342
:104ED0004950434C4F53450D0A0000004F6E654E3C
:104EE00045545F4465764C696E6B0D0A4E414D45E5
:104EF0003A2025732C0950524F49443A2025732CEF
:104F0000094B45593A25730D0A0000005469707326
:104F10003A09E8BF9EE68EA5E68890E58A9F0D0ACD
:104F2000000000005741524E3A09E8BF9EE68EA5A8
:104F3000E5A4B1E8B4A5EFBC9AE58D8FE8AE9499ED
:104F4000E8AFAF5C720A00005741524E3A09E8BF21
:104F50009EE68EA5E5A4B1E8B4A5EFBC9AE99D9EB6
:104F6000E6B395E79A84636C69656E7469640D0AAB
:104F7000000000005741524E3A09E8BF9EE68EA558
:104F8000E5A4B1E8B4A5EFBC9AE69C8DE58AA1E55D
:104F900099A8E5A4B1E8B4A50D0A00005741524E06
:104FA0003A09E8BF9EE68EA5E5A4B1E8B4A5EFBC3A
:104FB0009AE794A8E688B7E5908DE68896E5AF86EF
:104FC000E7A081E99499E8AFAF5C720A00000000A5
:104FD000DEA1EB48FDF7C9FB04E0EAA1E848FDF7D4
:104FE000C4FB00BF00BF2FA800F0D4FE03E0EEA179
:104FF000E348FDF7BAFB284633B030BD10B5A0B08A
:1050000004468021684604F0DEFDF0A1204604F04D
:10501000A7FC8021684604F0D6FDF6480278F6A188
:10502000684604F043F96946204604F027FD8021D4
:10503000684604F0C8FDF6480278F6A1684604F018
:1050400035F96946204604F019FD8021684604F0D0
:10505000BAFDF648007808B1F5A000E0F6A00246D7
:10506000F7A1684604F022F96946204604F006FDDF
:105070008021684604F0A7FDF648007808B1ECA04E
:1050800000E0EDA00246F4A1684604F00FF969467D
:10509000204604F0F3FC8021684604F094FDF548B6
:1050A000007808B1E2A000E0E3A00246F2A1684661
:1050B00004F0FCF86946204604F0E0FC80216846D4
:1050C00004F081FDF248007808B1D9A000E0DAA030
:1050D0000246F0A1684604F0E9F86946204604F06B
:1050E000CDFCF1A1204604F0C9FC204604F05CFC94
:1050F000C0B220B010BD30B5C5B000204190429084
:1051000043904490002400254FF4807101A804F0DE
:105110005AFD01A8FFF772FF0446002C1CD041A8DD
:1051200001AB2246AFF2A4210090AFF2C02001F003
:1051300004F968B9429A91B2419801F048FDDBA1A7
:105140008F48429AFDF711FB41A800F023FE03E0CF
:10515000DAA18B48FDF709FB45B030BD70B588B0CA
:1051600005460C46002004900590069007902346C3
:105170002A46DAA18248FDF7F8FA204604F014FC2A
:10518000064604A80121002200923346CDE9012100
:105190000390224629460A2000F0EDFF38B9059A0F
:1051A00091B2049801F013FD04A800F0F3FD08B0DB
:1051B00070BD00B595B0002011901290139014901E
:1051C00003A80290AFF24430AFF26033CBA2382193
:1051D000009003A804F080F803AAD0A16848FDF766
:1051E000C4FA11A8012302AA00210090142001F0A2
:1051F000AFF938B9129A91B2119801F0E8FC11A8F0
:1052000000F0C8FD15B000BD2DE9F04F8BB082460F
:1052100000200A9009900890079006908346059018
:1052200004900390504600F0FDFD8346BBF1030F50
:1052300006D0BBF1040F78D0BBF1090F76D1ACE1F9
:10524000BC4806A907AA0AABCDE90021029008AA2A
:1052500009A9504601F0B3FA0590059800286DD1D0
:105260000290BDF81C000A99CDE90010BDF820306D
:10527000B1A14348099AFDF778FA0A9802F0D8FDDF
:105280008046B8F1000F58D0BAA1404603F083F829
:105290008146B9F1000F4DD0B8A1484603F07BF824
:1052A0000446B7A1484603F076F80546B5A148463E
:1052B00003F071F80646B5A1484603F06CF80746BE
:1052C0006CB1E068022803D10121FDF785FA06E000
:1052D000E068012803D100210220FDF77DFA75B1B5
:1052E000E868022804D164210120FEF715FA06E0DF
:1052F000E868012803D100210846FEF70DFA66B1DF
:10530000F068022803D10120FEF7ECF805E0F06810
:10531000012802D10020FEF7E5F82FB1F868022835
:1053200005D10120FEF7C6F904E008E043E10020C2
:10533000FEF7C0F9404601F050FE00BF3FE1504685
:1053400001F03DFB00B93AE126E100005741524E21
:105350003A09E8BF9EE68EA5E5A4B1E8B4A5EFBC86
:105360009AE99D9EE6B395E993BEEFBF3FE6AF9401
:10537000E5746F6B656EE99D9EE6B395290D0A0095
:10538000003801404552523A09E8BF9EE68EA5E535
:10539000A4B1E8B4A5EFBC9AE69CAAE79FA5E9945E
:1053A00099E8AFAF5C720A005741524E3A094D512D
:1053B00054545F5061636B6574436F6E6E656374C4
:1053C000204661696C65640D0A0000007B226964F7
:1053D000223A22313233222C2276657273696F6E43
:1053E000223A22312E30222C22706172616D73229A
:1053F0003A7B00009C0000202274656D70223A7B8D
:105400002276616C7565223A25647D2C00000000CF
:105410009D0000202268756D69223A7B2276616CBE
:105420007565223A25647D2C000000002C000020C8
:10543000747275650000000066616C7365000000A1
:10544000226C6564223A7B2276616C7565223A256E
:10545000737D2C0034000020226375727461696EC4
:1054600073223A7B2276616C7565223A25737D2C16
:10547000000000003200002022646F6F72223A7B2D
:105480002276616C7565223A25737D2C0000000040
:10549000330000202266616E223A7B2276616C75B1
:1054A00065223A25737D00007D7D000053656E64A2
:1054B0002025642042797465730D0A005741524ECD
:1054C0003A094544505F4E657742756666657220BD
:1054D0004661696C65640D0A000000005075626CDD
:1054E00069736820546F7069633A2025732C204DCE
:1054F00073673A2025730D0A000000002473797346
:105500002F25732F25732F7468696E672F70726F44
:1055100070657274792F736574000000537562733F
:10552000637269626520546F7069633A2025730D58
:105530000A000000B0000020746F7069633A2025F3
:10554000732C20746F7069635F6C656E3A202564FC
:105550002C207061796C6F61643A2025732C207067
:1055600061796C6F61645F6C656E3A2025640D0A29
:1055700000000000706172616D7300006C65640072
:1055800066616E00646F6F72000000006375727474
:1055900061696E730000000000BF504601F057F8CB
:1055A00020B909A10F48FDF7E0F803E00EA10D486E
:1055B000FDF7DBF803E04FF0FF30059000BF00BFC0
:1055C0000BB0BDE8F08F0000546970733A094D517B
:1055D000545420537562736372696265204F4B0D9A
:1055E0000A00000000380140546970733A094D51B7
:1055F00054542053756273637269626520457272F8
:105600000D0A0000F0B50446142C06DA01EA020582
:1056100023EA010685EA060019E0282C04DA81EA6B
:10562000020787EA030012E03C2C0ADA01EA0205CD
:1056300001EA030787EA050602EA030787EA06008C
:1056400005E0502C03DA81EA020787EA0300F0BD87
:105650000146142901DAF7480AE0282901DAF64858
:1056600006E03C2901DAF54802E0502900DAF44866
:105670007047F0B5024601209040441EE54301EA20
:10568000050020FA02F601EA0400C2F1200C00FA3B
:105690000CF746EA07031846F0BDF0B50246C2F122
:1056A000200C012000FA0CF0441EE54301EA04003E
:1056B00000FA02F601EA0500C2F1200C20FA0CF70C
:1056C00046EA07031846F0BD2DE9F04FDDB0074666
:1056D0008A4615460AF1080909F101094FEACA008C
:1056E0005B9048464FEAE97109EB91618E1148469B
:1056F0004FEAE97109EB91618911A9EB81115C9184
:105700005C98002800DD761C5C98C0F14000814464
:10571000D04604E0002007F8080008F10108B8EBC3
:10572000861FF7DB802007F80A000121C1EB8611F4
:105730005B9878545B98C0F307200221C1EB861177
:1057400078545B98C0F307400321C1EB861178546D
:105750005B98000E0421C1EB86117854B94856902D
:10576000B9485790B748C0435890B748C04359907C
:10577000B6485A904FF00008A5E0002452E0102CE3
:1057800032D24FEA881000EB8400385C000601A991
:1057900041F824004FEA881000EB8400401C385C7C
:1057A00051F824104FF4803202FB001001A941F897
:1057B00024004FEA881000EB8400801C385C51F80C
:1057C0002410121202FB001001A941F824004FEA34
:1057D000881000EB8400C01C385C51F82410084489
:1057E00001A941F824001CE0502C1AD2E01E01AAA5
:1057F00052F82000A4F1080201AB53F822205040D7
:10580000A4F10E0253F822205040A4F1100253F8E4
:10581000222080EA02010120FFF73FFF01A941F8A1
:105820002400641C502CAAD3569855905798549035
:1058300058985390599852905A98519000242AE0C1
:1058400005205599FFF729FF83462046529B539A1E
:105850005499FFF7D7FE5844009051990098084496
:1058600000902046FFF7F4FE00990844009001A83C
:1058700050F8241000980844009052985190539882
:1058800052901E205499FFF708FF5390559854905A
:1058900000985590641C502CD2D3569955980844C2
:1058A00056905799549808445790589953980844DB
:1058B000589059995298084459905A9951980844C7
:1058C0005A9008F10108B045FFF657AF5698E870B6
:1058D0005698000AA8705698000C68705698000EEA
:1058E00028705798E8715798000AA8715798000CCB
:1058F00068715798000E28715898E8725898000AF5
:10590000A8725898000C68725898000E287259981E
:10591000E8735998000AA8735998000C687359984D
:10592000000E28735A98E8745A98000AA8745A9876
:10593000000C68745A98000E28745DB0BDE8F08FB2
:105940002DE9F04FADF5B36D07460E4692469846E9
:10595000DDF8BC9540254FF0360B5C20CDF8940562
:10596000002404E000200DF254510855641C402C22
:10597000F8DBAE421DD0AE420FDD4A463146384616
:10598000FFF7A2FE002405E019F804000DF25451BF
:105990000855641C142CF7DB14E0AE4212DA002424
:1059A00004E0385D0DF254510855641CB442F8DB34
:1059B00008E0002404E0385D0DF254510855641CE1
:1059C000AC42F8DB002408E00DF25450005D80EAA0
:1059D0000B000DF214510855641C402CF4DB00241C
:1059E00005E00DF21450005D15A90855641C402C0B
:1059F000F7DB002406E01AF8041015AA04F14000B1
:105A00001154641C4445F6DB08EB05014A4615A811
:105A1000FFF75AFE002409E00DF25450005DDDF856
:105A2000941548400DF2D4410855641C402CF3DB1A
:105A3000002413E09979825AA1EBD96EDCBC1B8F4C
:105A4000D6C162CA0123456789ABCDEFF0E1D2C36D
:105A50000DF2D440005D0DF80400641C402CF7DB0F
:105A6000002406E019F8041004F140000DF80010BD
:105A7000641C142CF6DB4A4605F114016846FFF756
:105A800023FE0DF5B36DBDE8F08F00002DE9F04F5A
:105A900007468946099C00250026AC46A846AA462A
:105AA00000211CB900201060BDE8F08F0320B4FB7A
:105AB000F0F04FF0030BB4FBFBFE0BFB1E4BBBF1F6
:105AC000000F02D04FF0010B01E04FF0000B00EB94
:105AD0000B06B6F1804F05D34FF0FF3010606FF02A
